{
  "contractName": "Multisig",
  "abi": [
    {
      "inputs": [
        {
          "internalType": "string",
          "name": "_title",
          "type": "string"
        },
        {
          "internalType": "address[]",
          "name": "_participant",
          "type": "address[]"
        },
        {
          "internalType": "uint256",
          "name": "_requiredCount",
          "type": "uint256"
        }
      ],
      "stateMutability": "nonpayable",
      "type": "constructor"
    },
    {
      "inputs": [
        {
          "internalType": "uint256",
          "name": "",
          "type": "uint256"
        }
      ],
      "name": "participant",
      "outputs": [
        {
          "internalType": "address",
          "name": "",
          "type": "address"
        }
      ],
      "stateMutability": "view",
      "type": "function"
    },
    {
      "inputs": [],
      "name": "passValid",
      "outputs": [
        {
          "internalType": "bool",
          "name": "",
          "type": "bool"
        }
      ],
      "stateMutability": "view",
      "type": "function"
    },
    {
      "inputs": [],
      "name": "requiredCount",
      "outputs": [
        {
          "internalType": "uint256",
          "name": "",
          "type": "uint256"
        }
      ],
      "stateMutability": "view",
      "type": "function"
    },
    {
      "inputs": [],
      "name": "title",
      "outputs": [
        {
          "internalType": "string",
          "name": "",
          "type": "string"
        }
      ],
      "stateMutability": "view",
      "type": "function"
    },
    {
      "inputs": [
        {
          "internalType": "address",
          "name": "",
          "type": "address"
        }
      ],
      "name": "voted",
      "outputs": [
        {
          "internalType": "bool",
          "name": "",
          "type": "bool"
        }
      ],
      "stateMutability": "view",
      "type": "function"
    },
    {
      "inputs": [],
      "name": "votedCount",
      "outputs": [
        {
          "internalType": "uint256",
          "name": "",
          "type": "uint256"
        }
      ],
      "stateMutability": "view",
      "type": "function"
    },
    {
      "inputs": [],
      "name": "vote",
      "outputs": [],
      "stateMutability": "nonpayable",
      "type": "function"
    },
    {
      "inputs": [],
      "name": "isPassValid",
      "outputs": [
        {
          "internalType": "bool",
          "name": "",
          "type": "bool"
        }
      ],
      "stateMutability": "view",
      "type": "function"
    },
    {
      "inputs": [],
      "name": "votedParticipant",
      "outputs": [
        {
          "internalType": "address[]",
          "name": "",
          "type": "address[]"
        }
      ],
      "stateMutability": "view",
      "type": "function"
    }
  ],
  "bytecode": "0x608060405260006003556000600460006101000a81548160ff0219169083151502179055503480156200003157600080fd5b506040516200123c3803806200123c8339818101604052810190620000579190620004f0565b82600090805190602001906200006f92919062000099565b508160019080519060200190620000889291906200012a565b5080600281905550505050620005ee565b828054620000a790620005b9565b90600052602060002090601f016020900481019282620000cb576000855562000117565b82601f10620000e657805160ff191683800117855562000117565b8280016001018555821562000117579182015b8281111562000116578251825591602001919060010190620000f9565b5b509050620001269190620001b9565b5090565b828054828255906000526020600020908101928215620001a6579160200282015b82811115620001a55782518260006101000a81548173ffffffffffffffffffffffffffffffffffffffff021916908373ffffffffffffffffffffffffffffffffffffffff160217905550916020019190600101906200014b565b5b509050620001b59190620001b9565b5090565b5b80821115620001d4576000816000905550600101620001ba565b5090565b6000604051905090565b600080fd5b600080fd5b600080fd5b600080fd5b6000601f19601f8301169050919050565b7f4e487b7100000000000000000000000000000000000000000000000000000000600052604160045260246000fd5b6200024182620001f6565b810181811067ffffffffffffffff8211171562000263576200026262000207565b5b80604052505050565b600062000278620001d8565b905062000286828262000236565b919050565b600067ffffffffffffffff821115620002a957620002a862000207565b5b620002b482620001f6565b9050602081019050919050565b60005b83811015620002e1578082015181840152602081019050620002c4565b83811115620002f1576000848401525b50505050565b60006200030e62000308846200028b565b6200026c565b9050828152602081018484840111156200032d576200032c620001f1565b5b6200033a848285620002c1565b509392505050565b600082601f8301126200035a5762000359620001ec565b5b81516200036c848260208601620002f7565b91505092915050565b600067ffffffffffffffff82111562000393576200039262000207565b5b602082029050602081019050919050565b600080fd5b600073ffffffffffffffffffffffffffffffffffffffff82169050919050565b6000620003d682620003a9565b9050919050565b620003e881620003c9565b8114620003f457600080fd5b50565b6000815190506200040881620003dd565b92915050565b6000620004256200041f8462000375565b6200026c565b905080838252602082019050602084028301858111156200044b576200044a620003a4565b5b835b81811015620004785780620004638882620003f7565b8452602084019350506020810190506200044d565b5050509392505050565b600082601f8301126200049a5762000499620001ec565b5b8151620004ac8482602086016200040e565b91505092915050565b6000819050919050565b620004ca81620004b5565b8114620004d657600080fd5b50565b600081519050620004ea81620004bf565b92915050565b6000806000606084860312156200050c576200050b620001e2565b5b600084015167ffffffffffffffff8111156200052d576200052c620001e7565b5b6200053b8682870162000342565b935050602084015167ffffffffffffffff8111156200055f576200055e620001e7565b5b6200056d8682870162000482565b92505060406200058086828701620004d9565b9150509250925092565b7f4e487b7100000000000000000000000000000000000000000000000000000000600052602260045260246000fd5b60006002820490506001821680620005d257607f821691505b602082108103620005e857620005e76200058a565b5b50919050565b610c3e80620005fe6000396000f3fe608060405234801561001057600080fd5b50600436106100935760003560e01c8063632a9a5211610066578063632a9a521461012257806379f552ee1461012c578063aec2ccae1461014a578063c4cda32c1461017a578063f0232d0a1461019857610093565b806306c7dbb5146100985780634a79d50c146100b65780634b07954a146100d4578063621b153f14610104575b600080fd5b6100a06101b6565b6040516100ad91906106a6565b60405180910390f35b6100be6101bc565b6040516100cb919061075a565b60405180910390f35b6100ee60048036038101906100e991906107ad565b61024a565b6040516100fb919061081b565b60405180910390f35b61010c610289565b6040516101199190610851565b60405180910390f35b61012a61029c565b005b6101346104a0565b6040516101419190610851565b60405180910390f35b610164600480360381019061015f9190610898565b6104b7565b6040516101719190610851565b60405180910390f35b6101826104d7565b60405161018f9190610983565b60405180910390f35b6101a0610687565b6040516101ad91906106a6565b60405180910390f35b60025481565b600080546101c9906109d4565b80601f01602080910402602001604051908101604052809291908181526020018280546101f5906109d4565b80156102425780601f1061021757610100808354040283529160200191610242565b820191906000526020600020905b81548152906001019060200180831161022557829003601f168201915b505050505081565b6001818154811061025a57600080fd5b906000526020600020016000915054906101000a900473ffffffffffffffffffffffffffffffffffffffff1681565b600460009054906101000a900460ff1681565b6000805b60018054905081101561033657600181815481106102c1576102c0610a05565b5b9060005260206000200160009054906101000a900473ffffffffffffffffffffffffffffffffffffffff1673ffffffffffffffffffffffffffffffffffffffff163373ffffffffffffffffffffffffffffffffffffffff160361032357600191505b808061032e90610a63565b9150506102a0565b5080610377576040517f08c379a000000000000000000000000000000000000000000000000000000000815260040161036e90610af7565b60405180910390fd5b600560003373ffffffffffffffffffffffffffffffffffffffff1673ffffffffffffffffffffffffffffffffffffffff16815260200190815260200160002060009054906101000a900460ff1615610404576040517f08c379a00000000000000000000000000000000000000000000000000000000081526004016103fb90610b63565b60405180910390fd5b6001600560003373ffffffffffffffffffffffffffffffffffffffff1673ffffffffffffffffffffffffffffffffffffffff16815260200190815260200160002060006101000a81548160ff02191690831515021790555060016003600082825461046f9190610b83565b925050819055506002546003541061049d576001600460006101000a81548160ff0219169083151502179055505b50565b6000600460009054906101000a900460ff16905090565b60056020528060005260406000206000915054906101000a900460ff1681565b6060600060035467ffffffffffffffff8111156104f7576104f6610bd9565b5b6040519080825280602002602001820160405280156105255781602001602082028036833780820191505090505b5090506000805b60018054905081101561067e5760011515600560006001848154811061055557610554610a05565b5b9060005260206000200160009054906101000a900473ffffffffffffffffffffffffffffffffffffffff1673ffffffffffffffffffffffffffffffffffffffff1673ffffffffffffffffffffffffffffffffffffffff16815260200190815260200160002060009054906101000a900460ff1615150361066b57600181815481106105e3576105e2610a05565b5b9060005260206000200160009054906101000a900473ffffffffffffffffffffffffffffffffffffffff1683838151811061062157610620610a05565b5b602002602001019073ffffffffffffffffffffffffffffffffffffffff16908173ffffffffffffffffffffffffffffffffffffffff16815250506001826106689190610b83565b91505b808061067690610a63565b91505061052c565b50819250505090565b60035481565b6000819050919050565b6106a08161068d565b82525050565b60006020820190506106bb6000830184610697565b92915050565b600081519050919050565b600082825260208201905092915050565b60005b838110156106fb5780820151818401526020810190506106e0565b8381111561070a576000848401525b50505050565b6000601f19601f8301169050919050565b600061072c826106c1565b61073681856106cc565b93506107468185602086016106dd565b61074f81610710565b840191505092915050565b600060208201905081810360008301526107748184610721565b905092915050565b600080fd5b61078a8161068d565b811461079557600080fd5b50565b6000813590506107a781610781565b92915050565b6000602082840312156107c3576107c261077c565b5b60006107d184828501610798565b91505092915050565b600073ffffffffffffffffffffffffffffffffffffffff82169050919050565b6000610805826107da565b9050919050565b610815816107fa565b82525050565b6000602082019050610830600083018461080c565b92915050565b60008115159050919050565b61084b81610836565b82525050565b60006020820190506108666000830184610842565b92915050565b610875816107fa565b811461088057600080fd5b50565b6000813590506108928161086c565b92915050565b6000602082840312156108ae576108ad61077c565b5b60006108bc84828501610883565b91505092915050565b600081519050919050565b600082825260208201905092915050565b6000819050602082019050919050565b6108fa816107fa565b82525050565b600061090c83836108f1565b60208301905092915050565b6000602082019050919050565b6000610930826108c5565b61093a81856108d0565b9350610945836108e1565b8060005b8381101561097657815161095d8882610900565b975061096883610918565b925050600181019050610949565b5085935050505092915050565b6000602082019050818103600083015261099d8184610925565b905092915050565b7f4e487b7100000000000000000000000000000000000000000000000000000000600052602260045260246000fd5b600060028204905060018216806109ec57607f821691505b6020821081036109ff576109fe6109a5565b5b50919050565b7f4e487b7100000000000000000000000000000000000000000000000000000000600052603260045260246000fd5b7f4e487b7100000000000000000000000000000000000000000000000000000000600052601160045260246000fd5b6000610a6e8261068d565b91507fffffffffffffffffffffffffffffffffffffffffffffffffffffffffffffffff8203610aa057610a9f610a34565b5b600182019050919050565b7f596f7520617265206e6f742061207061727469636970616e7421000000000000600082015250565b6000610ae1601a836106cc565b9150610aec82610aab565b602082019050919050565b60006020820190508181036000830152610b1081610ad4565b9050919050565b7f596f75206861766520616c726561647920766f74656421000000000000000000600082015250565b6000610b4d6017836106cc565b9150610b5882610b17565b602082019050919050565b60006020820190508181036000830152610b7c81610b40565b9050919050565b6000610b8e8261068d565b9150610b998361068d565b9250827fffffffffffffffffffffffffffffffffffffffffffffffffffffffffffffffff03821115610bce57610bcd610a34565b5b828201905092915050565b7f4e487b7100000000000000000000000000000000000000000000000000000000600052604160045260246000fdfea2646970667358221220c74b36a6b9d5e4eabe94bd5f08bddcde0021df382a39c3be7ee7b83a6d1c012264736f6c634300080d0033",
  "immutableReferences": {},
  "source": "// SPDX-License-Identifier: MIT\r\npragma solidity >=0.8.5;\r\n\r\ncontract Multisig {\r\n    string public title;\r\n    address[] public participant;\r\n    uint256 public requiredCount;\r\n    uint256 public votedCount = 0;\r\n    bool public passValid = false;\r\n    mapping (address => bool) public voted;\r\n\r\n    constructor(string memory _title, address[] memory _participant, uint256 _requiredCount) {\r\n        title = _title;\r\n        participant = _participant;\r\n        requiredCount = _requiredCount;\r\n    }\r\n\r\n    modifier onlyParticipant {\r\n        bool validParticipant = false;\r\n        for(uint256 count = 0;count < participant.length;count++) {\r\n            if(msg.sender == participant[count]) {\r\n                validParticipant = true;\r\n            }\r\n        }\r\n        require(validParticipant,\"You are not a participant!\");\r\n        _;\r\n    }\r\n\r\n    function vote() external onlyParticipant {\r\n        require(!voted[msg.sender], \"You have already voted!\");\r\n        voted[msg.sender] = true;\r\n        votedCount += 1;\r\n        if(votedCount >= requiredCount) {\r\n            passValid = true;\r\n        }\r\n    }\r\n\r\n    function isPassValid() external view returns (bool) {\r\n        return passValid;\r\n    }\r\n\r\n    function votedParticipant() external view returns (address[] memory) {\r\n        address[] memory votedParticipants = new address[](votedCount);\r\n        uint256 temp_count = 0;\r\n        for(uint256 count = 0;count < participant.length;count++) {\r\n            if(voted[participant[count]] == true) {\r\n                votedParticipants[temp_count] = participant[count];\r\n                temp_count += 1;\r\n            }\r\n            \r\n        }\r\n        return votedParticipants;\r\n    }\r\n  \r\n}\r\n",
  "sourcePath": "D:\\Work\\web3_mvc\\smart_contract\\contracts\\Multisig.sol",
  "compiler": {
    "name": "solc",
    "version": "0.8.13+commit.abaa5c0e.Emscripten.clang"
  },
  "schemaVersion": "3.4.8",
  "updatedAt": "2022-07-19T14:51:09.376Z",
  "devdoc": {
    "kind": "dev",
    "methods": {},
    "version": 1
  },
  "userdoc": {
    "kind": "user",
    "methods": {},
    "version": 1
  }
}